{
  "contractName": "FileSystem",
  "abi": [
    {
      "constant": false,
      "inputs": [
        {
          "name": "_orbitdbAddr",
          "type": "string"
        },
        {
          "name": "_ipfsId",
          "type": "string"
        },
        {
          "name": "_repo",
          "type": "string"
        }
      ],
      "name": "signIn",
      "outputs": [
        {
          "name": "",
          "type": "uint256"
        },
        {
          "name": "",
          "type": "string"
        }
      ],
      "payable": false,
      "stateMutability": "nonpayable",
      "type": "function",
      "signature": "0x17d984ec"
    },
    {
      "constant": true,
      "inputs": [],
      "name": "login",
      "outputs": [
        {
          "name": "orbitdbAddr",
          "type": "string"
        },
        {
          "name": "ipfsId",
          "type": "string"
        },
        {
          "name": "repo",
          "type": "string"
        }
      ],
      "payable": false,
      "stateMutability": "view",
      "type": "function",
      "signature": "0xb34e97e8"
    },
    {
      "constant": false,
      "inputs": [
        {
          "name": "_fileHash",
          "type": "string"
        },
        {
          "name": "_fileName",
          "type": "string"
        },
        {
          "name": "_timestamp",
          "type": "string"
        },
        {
          "name": "_channelId",
          "type": "string"
        },
        {
          "name": "_creator",
          "type": "string"
        },
        {
          "name": "_commit",
          "type": "string"
        }
      ],
      "name": "addRecord",
      "outputs": [
        {
          "name": "",
          "type": "uint256"
        },
        {
          "name": "",
          "type": "string"
        }
      ],
      "payable": false,
      "stateMutability": "nonpayable",
      "type": "function",
      "signature": "0xf06b3b79"
    },
    {
      "constant": true,
      "inputs": [
        {
          "name": "_channelId",
          "type": "string"
        }
      ],
      "name": "getLastestRecord",
      "outputs": [
        {
          "name": "fileHash",
          "type": "string"
        },
        {
          "name": "fileName",
          "type": "string"
        },
        {
          "name": "timestamp",
          "type": "string"
        },
        {
          "name": "channelId",
          "type": "string"
        },
        {
          "name": "creator",
          "type": "string"
        },
        {
          "name": "commit",
          "type": "string"
        }
      ],
      "payable": false,
      "stateMutability": "view",
      "type": "function",
      "signature": "0x85ed5933"
    },
    {
      "constant": true,
      "inputs": [
        {
          "name": "_channelId",
          "type": "string"
        },
        {
          "name": "_timestamp",
          "type": "string"
        }
      ],
      "name": "getSpecificRecord",
      "outputs": [
        {
          "name": "fileHash",
          "type": "string"
        },
        {
          "name": "fileName",
          "type": "string"
        },
        {
          "name": "timestamp",
          "type": "string"
        },
        {
          "name": "channelId",
          "type": "string"
        },
        {
          "name": "creator",
          "type": "string"
        },
        {
          "name": "commit",
          "type": "string"
        }
      ],
      "payable": false,
      "stateMutability": "view",
      "type": "function",
      "signature": "0xe66c30b6"
    },
    {
      "constant": true,
      "inputs": [
        {
          "name": "_channelId",
          "type": "string"
        }
      ],
      "name": "getRecordCount",
      "outputs": [
        {
          "name": "count",
          "type": "uint256"
        }
      ],
      "payable": false,
      "stateMutability": "view",
      "type": "function",
      "signature": "0xc3cef20a"
    },
    {
      "constant": true,
      "inputs": [
        {
          "name": "_channelId",
          "type": "string"
        },
        {
          "name": "index",
          "type": "uint256"
        }
      ],
      "name": "getRecordTimestamp",
      "outputs": [
        {
          "name": "timestamp",
          "type": "string"
        }
      ],
      "payable": false,
      "stateMutability": "view",
      "type": "function",
      "signature": "0xc952f108"
    }
  ],
  "bytecode": "0x608060405234801561001057600080fd5b50612ead806100206000396000f3fe608060405260043610610083576000357c0100000000000000000000000000000000000000000000000000000000900463ffffffff16806317d984ec1461008857806385ed5933146102fe578063b34e97e81461065b578063c3cef20a146107c3578063c952f1081461089f578063e66c30b6146109ea578063f06b3b7914610dde575b600080fd5b34801561009457600080fd5b5061027c600480360360608110156100ab57600080fd5b81019080803590602001906401000000008111156100c857600080fd5b8201836020820111156100da57600080fd5b803590602001918460018302840111640100000000831117156100fc57600080fd5b91908080601f016020809104026020016040519081016040528093929190818152602001838380828437600081840152601f19601f8201169050808301925050505050505091929192908035906020019064010000000081111561015f57600080fd5b82018360208201111561017157600080fd5b8035906020019184600183028401116401000000008311171561019357600080fd5b91908080601f016020809104026020016040519081016040528093929190818152602001838380828437600081840152601f19601f820116905080830192505050505050509192919290803590602001906401000000008111156101f657600080fd5b82018360208201111561020857600080fd5b8035906020019184600183028401116401000000008311171561022a57600080fd5b91908080601f016020809104026020016040519081016040528093929190818152602001838380828437600081840152601f19601f820116905080830192505050505050509192919290505050611219565b6040518083815260200180602001828103825283818151815260200191508051906020019080838360005b838110156102c25780820151818401526020810190506102a7565b50505050905090810190601f1680156102ef5780820380516001836020036101000a031916815260200191505b50935050505060405180910390f35b34801561030a57600080fd5b506103c46004803603602081101561032157600080fd5b810190808035906020019064010000000081111561033e57600080fd5b82018360208201111561035057600080fd5b8035906020019184600183028401116401000000008311171561037257600080fd5b91908080601f016020809104026020016040519081016040528093929190818152602001838380828437600081840152601f19601f8201169050808301925050505050505091929192905050506113dc565b6040518080602001806020018060200180602001806020018060200187810387528d818151815260200191508051906020019080838360005b838110156104185780820151818401526020810190506103fd565b50505050905090810190601f1680156104455780820380516001836020036101000a031916815260200191505b5087810386528c818151815260200191508051906020019080838360005b8381101561047e578082015181840152602081019050610463565b50505050905090810190601f1680156104ab5780820380516001836020036101000a031916815260200191505b5087810385528b818151815260200191508051906020019080838360005b838110156104e45780820151818401526020810190506104c9565b50505050905090810190601f1680156105115780820380516001836020036101000a031916815260200191505b5087810384528a818151815260200191508051906020019080838360005b8381101561054a57808201518184015260208101905061052f565b50505050905090810190601f1680156105775780820380516001836020036101000a031916815260200191505b50878103835289818151815260200191508051906020019080838360005b838110156105b0578082015181840152602081019050610595565b50505050905090810190601f1680156105dd5780820380516001836020036101000a031916815260200191505b50878103825288818151815260200191508051906020019080838360005b838110156106165780820151818401526020810190506105fb565b50505050905090810190601f1680156106435780820380516001836020036101000a031916815260200191505b509c5050505050505050505050505060405180910390f35b34801561066757600080fd5b50610670611b47565b60405180806020018060200180602001848103845287818151815260200191508051906020019080838360005b838110156106b857808201518184015260208101905061069d565b50505050905090810190601f1680156106e55780820380516001836020036101000a031916815260200191505b50848103835286818151815260200191508051906020019080838360005b8381101561071e578082015181840152602081019050610703565b50505050905090810190601f16801561074b5780820380516001836020036101000a031916815260200191505b50848103825285818151815260200191508051906020019080838360005b83811015610784578082015181840152602081019050610769565b50505050905090810190601f1680156107b15780820380516001836020036101000a031916815260200191505b50965050505050505060405180910390f35b3480156107cf57600080fd5b50610889600480360360208110156107e657600080fd5b810190808035906020019064010000000081111561080357600080fd5b82018360208201111561081557600080fd5b8035906020019184600183028401116401000000008311171561083757600080fd5b91908080601f016020809104026020016040519081016040528093929190818152602001838380828437600081840152601f19601f820116905080830192505050505050509192919290505050611dee565b6040518082815260200191505060405180910390f35b3480156108ab57600080fd5b5061096f600480360360408110156108c257600080fd5b81019080803590602001906401000000008111156108df57600080fd5b8201836020820111156108f157600080fd5b8035906020019184600183028401116401000000008311171561091357600080fd5b91908080601f016020809104026020016040519081016040528093929190818152602001838380828437600081840152601f19601f82011690508083019250505050505050919291929080359060200190929190505050611e66565b6040518080602001828103825283818151815260200191508051906020019080838360005b838110156109af578082015181840152602081019050610994565b50505050905090810190601f1680156109dc5780820380516001836020036101000a031916815260200191505b509250505060405180910390f35b3480156109f657600080fd5b50610b4760048036036040811015610a0d57600080fd5b8101908080359060200190640100000000811115610a2a57600080fd5b820183602082011115610a3c57600080fd5b80359060200191846001830284011164010000000083111715610a5e57600080fd5b91908080601f016020809104026020016040519081016040528093929190818152602001838380828437600081840152601f19601f82011690508083019250505050505050919291929080359060200190640100000000811115610ac157600080fd5b820183602082011115610ad357600080fd5b80359060200191846001830284011164010000000083111715610af557600080fd5b91908080601f016020809104026020016040519081016040528093929190818152602001838380828437600081840152601f19601f82011690508083019250505050505050919291929050505061201b565b6040518080602001806020018060200180602001806020018060200187810387528d818151815260200191508051906020019080838360005b83811015610b9b578082015181840152602081019050610b80565b50505050905090810190601f168015610bc85780820380516001836020036101000a031916815260200191505b5087810386528c818151815260200191508051906020019080838360005b83811015610c01578082015181840152602081019050610be6565b50505050905090810190601f168015610c2e5780820380516001836020036101000a031916815260200191505b5087810385528b818151815260200191508051906020019080838360005b83811015610c67578082015181840152602081019050610c4c565b50505050905090810190601f168015610c945780820380516001836020036101000a031916815260200191505b5087810384528a818151815260200191508051906020019080838360005b83811015610ccd578082015181840152602081019050610cb2565b50505050905090810190601f168015610cfa5780820380516001836020036101000a031916815260200191505b50878103835289818151815260200191508051906020019080838360005b83811015610d33578082015181840152602081019050610d18565b50505050905090810190601f168015610d605780820380516001836020036101000a031916815260200191505b50878103825288818151815260200191508051906020019080838360005b83811015610d99578082015181840152602081019050610d7e565b50505050905090810190601f168015610dc65780820380516001836020036101000a031916815260200191505b509c5050505050505050505050505060405180910390f35b348015610dea57600080fd5b50611197600480360360c0811015610e0157600080fd5b8101908080359060200190640100000000811115610e1e57600080fd5b820183602082011115610e3057600080fd5b80359060200191846001830284011164010000000083111715610e5257600080fd5b91908080601f016020809104026020016040519081016040528093929190818152602001838380828437600081840152601f19601f82011690508083019250505050505050919291929080359060200190640100000000811115610eb557600080fd5b820183602082011115610ec757600080fd5b80359060200191846001830284011164010000000083111715610ee957600080fd5b91908080601f016020809104026020016040519081016040528093929190818152602001838380828437600081840152601f19601f82011690508083019250505050505050919291929080359060200190640100000000811115610f4c57600080fd5b820183602082011115610f5e57600080fd5b80359060200191846001830284011164010000000083111715610f8057600080fd5b91908080601f016020809104026020016040519081016040528093929190818152602001838380828437600081840152601f19601f82011690508083019250505050505050919291929080359060200190640100000000811115610fe357600080fd5b820183602082011115610ff557600080fd5b8035906020019184600183028401116401000000008311171561101757600080fd5b91908080601f016020809104026020016040519081016040528093929190818152602001838380828437600081840152601f19601f8201169050808301925050505050505091929192908035906020019064010000000081111561107a57600080fd5b82018360208201111561108c57600080fd5b803590602001918460018302840111640100000000831117156110ae57600080fd5b91908080601f016020809104026020016040519081016040528093929190818152602001838380828437600081840152601f19601f8201169050808301925050505050505091929192908035906020019064010000000081111561111157600080fd5b82018360208201111561112357600080fd5b8035906020019184600183028401116401000000008311171561114557600080fd5b91908080601f016020809104026020016040519081016040528093929190818152602001838380828437600081840152601f19601f8201169050808301925050505050505091929192905050506129a6565b6040518083815260200180602001828103825283818151815260200191508051906020019080838360005b838110156111dd5780820151818401526020810190506111c2565b50505050905090810190601f16801561120a5780820380516001836020036101000a031916815260200191505b50935050505060405180910390f35b600060606000803373ffffffffffffffffffffffffffffffffffffffff1673ffffffffffffffffffffffffffffffffffffffff16815260200190815260200160002060030160009054906101000a900460ff16156112b6576107d18090506040805190810160405280601781526020017f616c7265616479206861766520616e206163636f756e74000000000000000000815250915091506113d4565b608060405190810160405280868152602001858152602001848152602001600115158152506000803373ffffffffffffffffffffffffffffffffffffffff1673ffffffffffffffffffffffffffffffffffffffff1681526020019081526020016000206000820151816000019080519060200190611335929190612d5c565b506020820151816001019080519060200190611352929190612d5c565b50604082015181600201908051906020019061136f929190612d5c565b5060608201518160030160006101000a81548160ff0219169083151502179055509050506103e98090506040805190810160405280601781526020017f7375636365737366756c6c792072656769737465726564000000000000000000815250915091505b935093915050565b606080606080606080600060606003896040518082805190602001908083835b60208310151561142157805182526020820191506020810190506020830392506113fc565b6001836020036101000a038019825116818451168082178552505050505050905001915050908152602001604051809103902080549050915060008214156114dc576020604051908101604052806000815250602060405190810160405280600081525060206040519081016040528060008152506020604051908101604052806000815250602060405190810160405280600081525060206040519081016040528060008152509750975097509750975097505050611b3e565b6003896040518082805190602001908083835b60208310151561151457805182526020820191506020810190506020830392506114ef565b6001836020036101000a03801982511681845116808217855250505050505090500191505090815260200160405180910390206001830381548110151561155757fe5b906000526020600020018054600181600116156101000203166002900480601f0160208091040260200160405190810160405280929190818152602001828054600181600116156101000203166002900480156115f55780601f106115ca576101008083540402835291602001916115f5565b820191906000526020600020905b8154815290600101906020018083116115d857829003601f168201915b50505050509050806001826040518082805190602001908083835b6020831015156116355780518252602082019150602081019050602083039250611610565b6001836020036101000a03801982511681845116808217855250505050505090500191505090815260200160405180910390206000016001836040518082805190602001908083835b6020831015156116a3578051825260208201915060208101905060208303925061167e565b6001836020036101000a03801982511681845116808217855250505050505090500191505090815260200160405180910390206001016001846040518082805190602001908083835b60208310151561171157805182526020820191506020810190506020830392506116ec565b6001836020036101000a03801982511681845116808217855250505050505090500191505090815260200160405180910390206002016001856040518082805190602001908083835b60208310151561177f578051825260208201915060208101905060208303925061175a565b6001836020036101000a03801982511681845116808217855250505050505090500191505090815260200160405180910390206003016001866040518082805190602001908083835b6020831015156117ed57805182526020820191506020810190506020830392506117c8565b6001836020036101000a0380198251168184511680821785525050505050509050019150509081526020016040518091039020600401848054600181600116156101000203166002900480601f0160208091040260200160405190810160405280929190818152602001828054600181600116156101000203166002900480156118b85780601f1061188d576101008083540402835291602001916118b8565b820191906000526020600020905b81548152906001019060200180831161189b57829003601f168201915b50505050509450838054600181600116156101000203166002900480601f0160208091040260200160405190810160405280929190818152602001828054600181600116156101000203166002900480156119545780601f1061192957610100808354040283529160200191611954565b820191906000526020600020905b81548152906001019060200180831161193757829003601f168201915b50505050509350828054600181600116156101000203166002900480601f0160208091040260200160405190810160405280929190818152602001828054600181600116156101000203166002900480156119f05780601f106119c5576101008083540402835291602001916119f0565b820191906000526020600020905b8154815290600101906020018083116119d357829003601f168201915b50505050509250818054600181600116156101000203166002900480601f016020809104026020016040519081016040528092919081815260200182805460018160011615610100020316600290048015611a8c5780601f10611a6157610100808354040283529160200191611a8c565b820191906000526020600020905b815481529060010190602001808311611a6f57829003601f168201915b50505050509150808054600181600116156101000203166002900480601f016020809104026020016040519081016040528092919081815260200182805460018160011615610100020316600290048015611b285780601f10611afd57610100808354040283529160200191611b28565b820191906000526020600020905b815481529060010190602001808311611b0b57829003601f168201915b5050505050905097509750975097509750975050505b91939550919395565b60608060606000803373ffffffffffffffffffffffffffffffffffffffff1673ffffffffffffffffffffffffffffffffffffffff1681526020019081526020016000206000016000803373ffffffffffffffffffffffffffffffffffffffff1673ffffffffffffffffffffffffffffffffffffffff1681526020019081526020016000206001016000803373ffffffffffffffffffffffffffffffffffffffff1673ffffffffffffffffffffffffffffffffffffffff168152602001908152602001600020600201828054600181600116156101000203166002900480601f016020809104026020016040519081016040528092919081815260200182805460018160011615610100020316600290048015611ca45780601f10611c7957610100808354040283529160200191611ca4565b820191906000526020600020905b815481529060010190602001808311611c8757829003601f168201915b50505050509250818054600181600116156101000203166002900480601f016020809104026020016040519081016040528092919081815260200182805460018160011615610100020316600290048015611d405780601f10611d1557610100808354040283529160200191611d40565b820191906000526020600020905b815481529060010190602001808311611d2357829003601f168201915b50505050509150808054600181600116156101000203166002900480601f016020809104026020016040519081016040528092919081815260200182805460018160011615610100020316600290048015611ddc5780601f10611db157610100808354040283529160200191611ddc565b820191906000526020600020905b815481529060010190602001808311611dbf57829003601f168201915b50505050509050925092509250909192565b60006003826040518082805190602001908083835b602083101515611e285780518252602082019150602081019050602083039250611e03565b6001836020036101000a0380198251168184511680821785525050505050509050019150509081526020016040518091039020805490509050919050565b606060006002846040518082805190602001908083835b602083101515611ea25780518252602082019150602081019050602083039250611e7d565b6001836020036101000a0380198251168184511680821785525050505050509050019150509081526020016040518091039020805490501415611ef75760206040519081016040528060008152509050612015565b6002836040518082805190602001908083835b602083101515611f2f5780518252602082019150602081019050602083039250611f0a565b6001836020036101000a038019825116818451168082178552505050505050905001915050908152602001604051809103902082815481101515611f6f57fe5b906000526020600020018054600181600116156101000203166002900480601f01602080910402602001604051908101604052809291908181526020018280546001816001161561010002031660029004801561200d5780601f10611fe25761010080835404028352916020019161200d565b820191906000526020600020905b815481529060010190602001808311611ff057829003601f168201915b505050505090505b92915050565b60608060608060608060006003896040518082805190602001908083835b60208310151561205e5780518252602082019150602081019050602083039250612039565b6001836020036101000a038019825116818451168082178552505050505050905001915050908152602001604051809103902080549050905060008090505b8181101561292757606060028b6040518082805190602001908083835b6020831015156120df57805182526020820191506020810190506020830392506120ba565b6001836020036101000a03801982511681845116808217855250505050505090500191505090815260200160405180910390208281548110151561211f57fe5b906000526020600020018054600181600116156101000203166002900480601f0160208091040260200160405190810160405280929190818152602001828054600181600116156101000203166002900480156121bd5780601f10612192576101008083540402835291602001916121bd565b820191906000526020600020905b8154815290600101906020018083116121a057829003601f168201915b50505050509050806040516020018082805190602001908083835b6020831015156121fd57805182526020820191506020810190506020830392506121d8565b6001836020036101000a038019825116818451168082178552505050505050905001915050604051602081830303815290604052805190602001208a6040516020018082805190602001908083835b602083101515612271578051825260208201915060208101905060208303925061224c565b6001836020036101000a03801982511681845116808217855250505050505090500191505060405160208183030381529060405280519060200120141561291957606060038c6040518082805190602001908083835b6020831015156122ec57805182526020820191506020810190506020830392506122c7565b6001836020036101000a03801982511681845116808217855250505050505090500191505090815260200160405180910390208381548110151561232c57fe5b906000526020600020018054600181600116156101000203166002900480601f0160208091040260200160405190810160405280929190818152602001828054600181600116156101000203166002900480156123ca5780601f1061239f576101008083540402835291602001916123ca565b820191906000526020600020905b8154815290600101906020018083116123ad57829003601f168201915b50505050509050806001826040518082805190602001908083835b60208310151561240a57805182526020820191506020810190506020830392506123e5565b6001836020036101000a03801982511681845116808217855250505050505090500191505090815260200160405180910390206000016001836040518082805190602001908083835b6020831015156124785780518252602082019150602081019050602083039250612453565b6001836020036101000a03801982511681845116808217855250505050505090500191505090815260200160405180910390206001016001846040518082805190602001908083835b6020831015156124e657805182526020820191506020810190506020830392506124c1565b6001836020036101000a03801982511681845116808217855250505050505090500191505090815260200160405180910390206002016001856040518082805190602001908083835b602083101515612554578051825260208201915060208101905060208303925061252f565b6001836020036101000a03801982511681845116808217855250505050505090500191505090815260200160405180910390206003016001866040518082805190602001908083835b6020831015156125c2578051825260208201915060208101905060208303925061259d565b6001836020036101000a0380198251168184511680821785525050505050509050019150509081526020016040518091039020600401848054600181600116156101000203166002900480601f01602080910402602001604051908101604052809291908181526020018280546001816001161561010002031660029004801561268d5780601f106126625761010080835404028352916020019161268d565b820191906000526020600020905b81548152906001019060200180831161267057829003601f168201915b50505050509450838054600181600116156101000203166002900480601f0160208091040260200160405190810160405280929190818152602001828054600181600116156101000203166002900480156127295780601f106126fe57610100808354040283529160200191612729565b820191906000526020600020905b81548152906001019060200180831161270c57829003601f168201915b50505050509350828054600181600116156101000203166002900480601f0160208091040260200160405190810160405280929190818152602001828054600181600116156101000203166002900480156127c55780601f1061279a576101008083540402835291602001916127c5565b820191906000526020600020905b8154815290600101906020018083116127a857829003601f168201915b50505050509250818054600181600116156101000203166002900480601f0160208091040260200160405190810160405280929190818152602001828054600181600116156101000203166002900480156128615780601f1061283657610100808354040283529160200191612861565b820191906000526020600020905b81548152906001019060200180831161284457829003601f168201915b50505050509150808054600181600116156101000203166002900480601f0160208091040260200160405190810160405280929190818152602001828054600181600116156101000203166002900480156128fd5780601f106128d2576101008083540402835291602001916128fd565b820191906000526020600020905b8154815290600101906020018083116128e057829003601f168201915b505050505090509950995099509950995099505050505061299c565b50808060010191505061209d565b50602060405190810160405280600081525060206040519081016040528060008152506020604051908101604052806000815250602060405190810160405280600081525060206040519081016040528060008152506020604051908101604052806000815250965096509650965096509650505b9295509295509295565b600060606001886040518082805190602001908083835b6020831015156129e257805182526020820191506020810190506020830392506129bd565b6001836020036101000a038019825116818451168082178552505050505050905001915050908152602001604051809103902060050160009054906101000a900460ff1615612a70576107d18090506040805190810160405280601381526020017f66696c6520616c7265616479206578697374730000000000000000000000000081525091509150612d51565b60c060405190810160405280888152602001878152602001868152602001858152602001848152602001600115158152506001896040518082805190602001908083835b602083101515612ad95780518252602082019150602081019050602083039250612ab4565b6001836020036101000a03801982511681845116808217855250505050505090500191505090815260200160405180910390206000820151816000019080519060200190612b28929190612d5c565b506020820151816001019080519060200190612b45929190612d5c565b506040820151816002019080519060200190612b62929190612d5c565b506060820151816003019080519060200190612b7f929190612d5c565b506080820151816004019080519060200190612b9c929190612d5c565b5060a08201518160050160006101000a81548160ff0219169083151502179055509050506003856040518082805190602001908083835b602083101515612bf85780518252602082019150602081019050602083039250612bd3565b6001836020036101000a0380198251168184511680821785525050505050509050019150509081526020016040518091039020889080600181540180825580915050906001820390600052602060002001600090919290919091509080519060200190612c66929190612ddc565b50506002856040518082805190602001908083835b602083101515612ca05780518252602082019150602081019050602083039250612c7b565b6001836020036101000a0380198251168184511680821785525050505050509050019150509081526020016040518091039020869080600181540180825580915050906001820390600052602060002001600090919290919091509080519060200190612d0e929190612ddc565b50506103e98090506040805190810160405280601981526020017f7375636365737366756c6c79206164646564207265636f726400000000000000815250915091505b965096945050505050565b828054600181600116156101000203166002900490600052602060002090601f016020900481019282601f10612d9d57805160ff1916838001178555612dcb565b82800160010185558215612dcb579182015b82811115612dca578251825591602001919060010190612daf565b5b509050612dd89190612e5c565b5090565b828054600181600116156101000203166002900490600052602060002090601f016020900481019282601f10612e1d57805160ff1916838001178555612e4b565b82800160010185558215612e4b579182015b82811115612e4a578251825591602001919060010190612e2f565b5b509050612e589190612e5c565b5090565b612e7e91905b80821115612e7a576000816000905550600101612e62565b5090565b9056fea165627a7a72305820ba2cde847b5f055842cca19c05658841a60797b90535f8c4766f6ffe0322e2e40029",
  "source": "pragma solidity ^0.5.0;\r\n\r\ncontract FileSystem {\r\n    struct userInfo {\r\n\t\tstring orbitdbAddr;\r\n\t\tstring ipfsId;\r\n\t\tstring repo;\r\n\t\tbool isUsed;\r\n\t}\r\n\t\r\n\tmapping (address => userInfo) users;\r\n\t\r\n    struct fileDetails {\r\n        string fileName;\r\n        string timestamp;\r\n        string channelId;\r\n        string creator;\r\n        string commit;\r\n        bool isUsed;\r\n    }\r\n    \r\n    mapping (string => fileDetails) fileVersion;       // fileHash => fileDetails\r\n    mapping (string => string[]) fileTimestampHistory; // channelId => timestamp[]\r\n    mapping (string => string[]) fileVersionHistory;   // channelId => fileHash[]\r\n    \r\n    // \r\n\tfunction signIn (string memory _orbitdbAddr, string memory _ipfsId, string memory _repo) public returns (uint, string memory){\r\n\t\tif (users[msg.sender].isUsed) {\r\n\t\t\treturn (2001, \"already have an account\");\r\n\t\t}\r\n\t\tusers[msg.sender] = userInfo(_orbitdbAddr, _ipfsId, _repo, true);\r\n\t\treturn (1001, \"successfully registered\");\r\n\t}\r\n\t\r\n\t// \r\n\tfunction login () \r\n\t    public \r\n\t    view\r\n\t    returns (\r\n\t        string memory orbitdbAddr, \r\n\t        string memory ipfsId, \r\n\t        string memory repo\r\n        ) \r\n    {\r\n\t    return (users[msg.sender].orbitdbAddr, users[msg.sender].ipfsId, users[msg.sender].repo);\r\n\t}\r\n    \r\n\t// \r\n    function addRecord (\r\n        string memory _fileHash, \r\n        string memory _fileName,\r\n        string memory _timestamp,\r\n        string memory _channelId,\r\n        string memory _creator,\r\n        string memory _commit\r\n    ) \r\n        public \r\n        returns (uint, string memory)\r\n    {\r\n        if (fileVersion[_fileHash].isUsed) {\r\n            return (2001, \"file already exists\");\r\n        }\r\n        fileVersion[_fileHash] = fileDetails(_fileName, _timestamp, _channelId, _creator, _commit, true);\r\n        fileVersionHistory[_channelId].push(_fileHash);\r\n        fileTimestampHistory[_channelId].push(_timestamp);\r\n        return (1001, \"successfully added record\");\r\n    }\r\n    \r\n    // channelId\r\n    function getLastestRecord (string memory _channelId) \r\n        public \r\n        view \r\n        returns (\r\n            string memory fileHash,\r\n            string memory fileName,\r\n            string memory timestamp,\r\n            string memory channelId,\r\n            string memory creator,\r\n            string memory commit\r\n        )\r\n    {\r\n        uint length;\r\n        string memory hash;\r\n        length = fileVersionHistory[_channelId].length;\r\n        if (length ==0) {\r\n            return (\"\", \"\", \"\", \"\", \"\", \"\");\r\n        }\r\n        hash = fileVersionHistory[_channelId][length-1];\r\n        return (hash, fileVersion[hash].fileName, fileVersion[hash].timestamp, fileVersion[hash].channelId, fileVersion[hash].creator, fileVersion[hash].commit);\r\n    }\r\n    \r\n    // channelIdtimestamp\r\n    function getSpecificRecord (string memory _channelId, string memory _timestamp) \r\n        public \r\n        view \r\n        returns (\r\n            string memory fileHash,\r\n            string memory fileName,\r\n            string memory timestamp,\r\n            string memory channelId,\r\n            string memory creator,\r\n            string memory commit\r\n        ) \r\n    {\r\n        uint length = fileVersionHistory[_channelId].length;\r\n        for (uint i = 0; i < length; i++) {\r\n            string memory temp_timestamp = fileTimestampHistory[_channelId][i];\r\n            if (keccak256(abi.encodePacked(_timestamp)) == keccak256(abi.encodePacked(temp_timestamp))) {\r\n                string memory hash = fileVersionHistory[_channelId][i];\r\n                return (hash, fileVersion[hash].fileName, fileVersion[hash].timestamp, fileVersion[hash].channelId, fileVersion[hash].creator, fileVersion[hash].commit);\r\n            }\r\n        }\r\n        return (\"\", \"\", \"\", \"\", \"\", \"\");\r\n    }\r\n    \r\n\t// channelid\r\n    function getRecordCount (string memory _channelId)\r\n        public\r\n        view\r\n        returns (\r\n            uint count\r\n        )\r\n    {\r\n        return fileVersionHistory[_channelId].length;\r\n    }\r\n    \r\n\t// channelid\r\n    function getRecordTimestamp (string memory _channelId, uint index)\r\n        public\r\n        view\r\n        returns (\r\n            string memory timestamp\r\n        )\r\n    {\r\n        if (fileTimestampHistory[_channelId].length == 0) {\r\n            return \"\";\r\n        }\r\n        return fileTimestampHistory[_channelId][index];\r\n    }\r\n    \r\n    // function getAllrecord (string memory _channelId) \r\n    //     public \r\n    //     returns (\r\n    //         string[] memory,\r\n    //         string[] memory,\r\n    //         string[] memory,\r\n    //         string[] memory,\r\n    //         string[] memory\r\n    //     ) \r\n    // {\r\n    //     uint length = fileVersionHistory[_channelId].length;\r\n    //     if (length > 0) {\r\n    //         for (uint i = 0; i < length; i++) {\r\n    //             string memory hash = fileVersionHistory[_channelId][i];\r\n    //             creatorArray.push(fileVersion[hash].creator);\r\n    //             fileNameArray.push(fileVersion[hash].fileName);\r\n    //             timestampArray.push(fileVersion[hash].timestamp);\r\n    //             commitArray.push(fileVersion[hash].commit);\r\n    //         }\r\n    //     }\r\n        \r\n    //     return (\r\n    //         fileVersionHistory[_channelId],\r\n    //         fileNameArray,\r\n    //         timestampArray,\r\n    //         creatorArray,\r\n    //         commitArray\r\n    //     );\r\n    // }\r\n    \r\n}",
  "sourcePath": "/Users/lynnn/bupt/FinalTest/contracts/FileSystem.sol",
  "compiler": {
    "name": "solc",
    "version": "0.5.0+commit.1d4f565a.Emscripten.clang"
  },
  "schemaVersion": "3.0.1",
  "updatedAt": "2019-01-18T13:16:46.269Z",
  "devdoc": {
    "methods": {}
  },
  "userdoc": {
    "methods": {}
  }
}